:100000000C9440000C944A000C944A000C944A0052
:100010000C944A000C944A000C944A000C944A0038
:100020000C944A000C944A000C944A000C944A0028
:100030000C944A000C944A000C944A000C944A0018
:100040000C944A000C944A000C944A000C944A0008
:100050000C944A000C944A000C944A000C944A00F8
:100060000C944A000C944A00454647656667002098
:100070002B2D2E3031323334353637383968000085
:1000800011241FBECFEFD8E0DEBFCDBF0E944C00D1
:100090000C943B020C9400008FEF87B9FFCFABE0CC
:1000A000B0E0E5E5F0E00C946F016C017B013A01F2
:1000B000FC0117821682838181FF0AC1CE0101965D
:1000C0004C01F601B380F701B3FC0591B3FE019139
:1000D0007F01002351F1053239F4B3FC0591B3FEE1
:1000E00001917F01053251F5B601802F90E00E9409
:1000F000AD0153013501E5CF1068F701B3FC05915F
:10010000B3FE01917F0117FD0EC0002371F0602F37
:1001100070E08FE690E00E94A201892B71F7033214
:1001200059F00C3649F301110BC0F6018681978115
:100130002B96EEE00C948B0110E1DFCF10E0E3CFC3
:10014000602F70E088E690E00E94A201892B51F0B8
:100150005301F4E0AF0EB11CB6018FE390E00E94B2
:10016000AD01C8CF033609F457C0033709F45EC0A8
:10017000033509F45AC0043619F0093609F076C07F
:10018000530117FF68C0F4E0AF0EB11CF3016081AA
:100190007181828193811F7E97FF08C09095809521
:1001A000709561957F4F8F4F9F4F10642AE030E02C
:1001B000A4010E94DD01082F081916FF05C0B60131
:1001C0008DE290E00E94AD0114FF15C0FE01E00F2A
:1001D000F11D8081803379F0B60180E390E00E94C8
:1001E000AD0112FF08C01072812F90E0B601885A4D
:1001F0009F4F0E94AD01015010E00F5F1F4F080D8F
:10020000191DF80182918F01B60190E00E94AD01A5
:1002100008151905B1F76ECF530182E0A80EB11C85
:10022000B601F301808191819ACF11605301F2E010
:10023000AF0EB11CF30160807180F30110FD859158
:1002400010FF81913F01882309F454CFB60190E05B
:100250000E94AD01F2CFF2E0AF0EB11CF30160815C
:100260007181072E000C880B990B95CF003709F18F
:1002700040F4083501F10F3609F057CF28E030E09F
:100280000CC0053739F0083709F04FCF146220E170
:1002900030E003C01F7E2AE030E0530117FF0FC09B
:1002A000F4E0AF0EB11CF301608171818281938112
:1002B0007FCF1061EBCF146020E132E0EECFF2E0AF
:1002C000AF0EB11CF3016081718190E080E070CFCE
:1002D0008FEF9FEF2DCF2F923F924F925F926F92B1
:1002E0007F928F929F92AF92BF92CF92DF92EF92C6
:1002F000FF920F931F93CF93DF93CDB7DEB7CA1B47
:10030000DB0B0FB6F894DEBF0FBECDBF09942A8871
:10031000398848885F846E847D848C849B84AA8419
:10032000B984C884DF80EE80FD800C811B81AA81A6
:10033000B981CE0FD11D0FB6F894DEBF0FBECDBF71
:10034000ED010895FC010590061621F00020D9F773
:10035000C00108953197CF0108950F931F93CF9354
:10036000DF93182F092FEB018B8181FD09C01FEF4F
:100370000FEF812F902FDF91CF911F910F91089553
:1003800082FF14C02E813F818C819D8128173907FF
:100390003CF4E881F981CF01019699838883108329
:1003A0008E819F8101969F838E83E3CFE885F985B7
:1003B000812F0995892BA1F3DACFFA01AA272830DA
:1003C00051F1203181F1E8946F936E7F6E5F7F4F22
:1003D0008F4F9F4FAF4FB1E03ED0B4E03CD0670F9E
:1003E000781F891F9A1FA11D680F791F8A1F911DF1
:1003F000A11D6A0F711D811D911DA11D20D009F441
:1004000068943F912AE0269F11243019305D319382
:10041000DEF6CF010895462F4770405D4193B3E06B
:100420000FD0C9F7F6CF462F4F70405D4A3318F012
:10043000495D31FD4052419302D0A9F7EACFB4E0C3
:10044000A6959795879577956795BA95C9F700977B
:100450006105710508959B01AC010A2E069457951C
:10046000479537952795BA95C9F7620F731F841F73
:0A047000951FA01D0895F894FFCF1A
:00000001FF
